{
  "_format": "hh-sol-artifact-1",
  "contractName": "MyNFT",
  "sourceName": "contracts/MyNFT.sol",
  "abi": [
    {
      "inputs": [],
      "stateMutability": "nonpayable",
      "type": "constructor"
    },
    {
      "inputs": [
        {
          "internalType": "address",
          "name": "sender",
          "type": "address"
        },
        {
          "internalType": "uint256",
          "name": "tokenId",
          "type": "uint256"
        },
        {
          "internalType": "address",
          "name": "owner",
          "type": "address"
        }
      ],
      "name": "ERC721IncorrectOwner",
      "type": "error"
    },
    {
      "inputs": [
        {
          "internalType": "address",
          "name": "operator",
          "type": "address"
        },
        {
          "internalType": "uint256",
          "name": "tokenId",
          "type": "uint256"
        }
      ],
      "name": "ERC721InsufficientApproval",
      "type": "error"
    },
    {
      "inputs": [
        {
          "internalType": "address",
          "name": "approver",
          "type": "address"
        }
      ],
      "name": "ERC721InvalidApprover",
      "type": "error"
    },
    {
      "inputs": [
        {
          "internalType": "address",
          "name": "operator",
          "type": "address"
        }
      ],
      "name": "ERC721InvalidOperator",
      "type": "error"
    },
    {
      "inputs": [
        {
          "internalType": "address",
          "name": "owner",
          "type": "address"
        }
      ],
      "name": "ERC721InvalidOwner",
      "type": "error"
    },
    {
      "inputs": [
        {
          "internalType": "address",
          "name": "receiver",
          "type": "address"
        }
      ],
      "name": "ERC721InvalidReceiver",
      "type": "error"
    },
    {
      "inputs": [
        {
          "internalType": "address",
          "name": "sender",
          "type": "address"
        }
      ],
      "name": "ERC721InvalidSender",
      "type": "error"
    },
    {
      "inputs": [
        {
          "internalType": "uint256",
          "name": "tokenId",
          "type": "uint256"
        }
      ],
      "name": "ERC721NonexistentToken",
      "type": "error"
    },
    {
      "inputs": [
        {
          "internalType": "address",
          "name": "owner",
          "type": "address"
        }
      ],
      "name": "OwnableInvalidOwner",
      "type": "error"
    },
    {
      "inputs": [
        {
          "internalType": "address",
          "name": "account",
          "type": "address"
        }
      ],
      "name": "OwnableUnauthorizedAccount",
      "type": "error"
    },
    {
      "anonymous": false,
      "inputs": [
        {
          "indexed": true,
          "internalType": "address",
          "name": "owner",
          "type": "address"
        },
        {
          "indexed": true,
          "internalType": "address",
          "name": "approved",
          "type": "address"
        },
        {
          "indexed": true,
          "internalType": "uint256",
          "name": "tokenId",
          "type": "uint256"
        }
      ],
      "name": "Approval",
      "type": "event"
    },
    {
      "anonymous": false,
      "inputs": [
        {
          "indexed": true,
          "internalType": "address",
          "name": "owner",
          "type": "address"
        },
        {
          "indexed": true,
          "internalType": "address",
          "name": "operator",
          "type": "address"
        },
        {
          "indexed": false,
          "internalType": "bool",
          "name": "approved",
          "type": "bool"
        }
      ],
      "name": "ApprovalForAll",
      "type": "event"
    },
    {
      "anonymous": false,
      "inputs": [
        {
          "indexed": true,
          "internalType": "address",
          "name": "previousOwner",
          "type": "address"
        },
        {
          "indexed": true,
          "internalType": "address",
          "name": "newOwner",
          "type": "address"
        }
      ],
      "name": "OwnershipTransferred",
      "type": "event"
    },
    {
      "anonymous": false,
      "inputs": [
        {
          "indexed": true,
          "internalType": "address",
          "name": "from",
          "type": "address"
        },
        {
          "indexed": true,
          "internalType": "address",
          "name": "to",
          "type": "address"
        },
        {
          "indexed": true,
          "internalType": "uint256",
          "name": "tokenId",
          "type": "uint256"
        }
      ],
      "name": "Transfer",
      "type": "event"
    },
    {
      "inputs": [
        {
          "internalType": "address",
          "name": "to",
          "type": "address"
        },
        {
          "internalType": "uint256",
          "name": "tokenId",
          "type": "uint256"
        }
      ],
      "name": "approve",
      "outputs": [],
      "stateMutability": "nonpayable",
      "type": "function"
    },
    {
      "inputs": [
        {
          "internalType": "address",
          "name": "owner",
          "type": "address"
        }
      ],
      "name": "balanceOf",
      "outputs": [
        {
          "internalType": "uint256",
          "name": "",
          "type": "uint256"
        }
      ],
      "stateMutability": "view",
      "type": "function"
    },
    {
      "inputs": [
        {
          "internalType": "uint256",
          "name": "tokenId",
          "type": "uint256"
        }
      ],
      "name": "getApproved",
      "outputs": [
        {
          "internalType": "address",
          "name": "",
          "type": "address"
        }
      ],
      "stateMutability": "view",
      "type": "function"
    },
    {
      "inputs": [
        {
          "internalType": "address",
          "name": "owner",
          "type": "address"
        },
        {
          "internalType": "address",
          "name": "operator",
          "type": "address"
        }
      ],
      "name": "isApprovedForAll",
      "outputs": [
        {
          "internalType": "bool",
          "name": "",
          "type": "bool"
        }
      ],
      "stateMutability": "view",
      "type": "function"
    },
    {
      "inputs": [],
      "name": "mint",
      "outputs": [],
      "stateMutability": "nonpayable",
      "type": "function"
    },
    {
      "inputs": [],
      "name": "name",
      "outputs": [
        {
          "internalType": "string",
          "name": "",
          "type": "string"
        }
      ],
      "stateMutability": "view",
      "type": "function"
    },
    {
      "inputs": [],
      "name": "owner",
      "outputs": [
        {
          "internalType": "address",
          "name": "",
          "type": "address"
        }
      ],
      "stateMutability": "view",
      "type": "function"
    },
    {
      "inputs": [
        {
          "internalType": "uint256",
          "name": "tokenId",
          "type": "uint256"
        }
      ],
      "name": "ownerOf",
      "outputs": [
        {
          "internalType": "address",
          "name": "",
          "type": "address"
        }
      ],
      "stateMutability": "view",
      "type": "function"
    },
    {
      "inputs": [
        {
          "internalType": "uint256",
          "name": "quantity",
          "type": "uint256"
        }
      ],
      "name": "publicMint",
      "outputs": [],
      "stateMutability": "nonpayable",
      "type": "function"
    },
    {
      "inputs": [],
      "name": "renounceOwnership",
      "outputs": [],
      "stateMutability": "nonpayable",
      "type": "function"
    },
    {
      "inputs": [
        {
          "internalType": "address",
          "name": "from",
          "type": "address"
        },
        {
          "internalType": "address",
          "name": "to",
          "type": "address"
        },
        {
          "internalType": "uint256",
          "name": "tokenId",
          "type": "uint256"
        }
      ],
      "name": "safeTransferFrom",
      "outputs": [],
      "stateMutability": "nonpayable",
      "type": "function"
    },
    {
      "inputs": [
        {
          "internalType": "address",
          "name": "from",
          "type": "address"
        },
        {
          "internalType": "address",
          "name": "to",
          "type": "address"
        },
        {
          "internalType": "uint256",
          "name": "tokenId",
          "type": "uint256"
        },
        {
          "internalType": "bytes",
          "name": "data",
          "type": "bytes"
        }
      ],
      "name": "safeTransferFrom",
      "outputs": [],
      "stateMutability": "nonpayable",
      "type": "function"
    },
    {
      "inputs": [
        {
          "internalType": "address",
          "name": "operator",
          "type": "address"
        },
        {
          "internalType": "bool",
          "name": "approved",
          "type": "bool"
        }
      ],
      "name": "setApprovalForAll",
      "outputs": [],
      "stateMutability": "nonpayable",
      "type": "function"
    },
    {
      "inputs": [
        {
          "internalType": "bytes4",
          "name": "interfaceId",
          "type": "bytes4"
        }
      ],
      "name": "supportsInterface",
      "outputs": [
        {
          "internalType": "bool",
          "name": "",
          "type": "bool"
        }
      ],
      "stateMutability": "view",
      "type": "function"
    },
    {
      "inputs": [],
      "name": "symbol",
      "outputs": [
        {
          "internalType": "string",
          "name": "",
          "type": "string"
        }
      ],
      "stateMutability": "view",
      "type": "function"
    },
    {
      "inputs": [
        {
          "internalType": "uint256",
          "name": "tokenId",
          "type": "uint256"
        }
      ],
      "name": "tokenURI",
      "outputs": [
        {
          "internalType": "string",
          "name": "",
          "type": "string"
        }
      ],
      "stateMutability": "view",
      "type": "function"
    },
    {
      "inputs": [],
      "name": "totalMinted",
      "outputs": [
        {
          "internalType": "uint256",
          "name": "",
          "type": "uint256"
        }
      ],
      "stateMutability": "view",
      "type": "function"
    },
    {
      "inputs": [
        {
          "internalType": "address",
          "name": "from",
          "type": "address"
        },
        {
          "internalType": "address",
          "name": "to",
          "type": "address"
        },
        {
          "internalType": "uint256",
          "name": "tokenId",
          "type": "uint256"
        }
      ],
      "name": "transferFrom",
      "outputs": [],
      "stateMutability": "nonpayable",
      "type": "function"
    },
    {
      "inputs": [
        {
          "internalType": "address",
          "name": "newOwner",
          "type": "address"
        }
      ],
      "name": "transferOwnership",
      "outputs": [],
      "stateMutability": "nonpayable",
      "type": "function"
    }
  ],
  "bytecode": "0x608060405260016007553480156200001657600080fd5b50336040518060400160405280601081526020017f4d79426173655365706f6c69614e4654000000000000000000000000000000008152506040518060400160405280600681526020017f4d42534e46540000000000000000000000000000000000000000000000000000815250816000908162000095919062000477565b508060019081620000a7919062000477565b505050600073ffffffffffffffffffffffffffffffffffffffff168173ffffffffffffffffffffffffffffffffffffffff16036200011f5760006040517f1e4fbdf7000000000000000000000000000000000000000000000000000000008152600401620001169190620005a3565b60405180910390fd5b62000130816200013760201b60201c565b50620005c0565b6000600660009054906101000a900473ffffffffffffffffffffffffffffffffffffffff16905081600660006101000a81548173ffffffffffffffffffffffffffffffffffffffff021916908373ffffffffffffffffffffffffffffffffffffffff1602179055508173ffffffffffffffffffffffffffffffffffffffff168173ffffffffffffffffffffffffffffffffffffffff167f8be0079c531659141344cd1fd0a4f28419497f9722a3daafe3b4186f6b6457e060405160405180910390a35050565b600081519050919050565b7f4e487b7100000000000000000000000000000000000000000000000000000000600052604160045260246000fd5b7f4e487b7100000000000000000000000000000000000000000000000000000000600052602260045260246000fd5b600060028204905060018216806200027f57607f821691505b60208210810362000295576200029462000237565b5b50919050565b60008190508160005260206000209050919050565b60006020601f8301049050919050565b600082821b905092915050565b600060088302620002ff7fffffffffffffffffffffffffffffffffffffffffffffffffffffffffffffffff82620002c0565b6200030b8683620002c0565b95508019841693508086168417925050509392505050565b6000819050919050565b6000819050919050565b600062000358620003526200034c8462000323565b6200032d565b62000323565b9050919050565b6000819050919050565b620003748362000337565b6200038c62000383826200035f565b848454620002cd565b825550505050565b600090565b620003a362000394565b620003b081848462000369565b505050565b5b81811015620003d857620003cc60008262000399565b600181019050620003b6565b5050565b601f8211156200042757620003f1816200029b565b620003fc84620002b0565b810160208510156200040c578190505b620004246200041b85620002b0565b830182620003b5565b50505b505050565b600082821c905092915050565b60006200044c600019846008026200042c565b1980831691505092915050565b600062000467838362000439565b9150826002028217905092915050565b6200048282620001fd565b67ffffffffffffffff8111156200049e576200049d62000208565b5b620004aa825462000266565b620004b7828285620003dc565b600060209050601f831160018114620004ef5760008415620004da578287015190505b620004e6858262000459565b86555062000556565b601f198416620004ff866200029b565b60005b82811015620005295784890151825560018201915060208501945060208101905062000502565b8683101562000549578489015162000545601f89168262000439565b8355505b6001600288020188555050505b505050505050565b600073ffffffffffffffffffffffffffffffffffffffff82169050919050565b60006200058b826200055e565b9050919050565b6200059d816200057e565b82525050565b6000602082019050620005ba600083018462000592565b92915050565b61227f80620005d06000396000f3fe608060405234801561001057600080fd5b50600436106101215760003560e01c806370a08231116100ad578063a2309ff811610071578063a2309ff8146102e0578063b88d4fde146102fe578063c87b56dd1461031a578063e985e9c51461034a578063f2fde38b1461037a57610121565b806370a082311461024e578063715018a61461027e5780638da5cb5b1461028857806395d89b41146102a6578063a22cb465146102c457610121565b80631249c58b116100f45780631249c58b146101c057806323b872dd146101ca5780632db11544146101e657806342842e0e146102025780636352211e1461021e57610121565b806301ffc9a71461012657806306fdde0314610156578063081812fc14610174578063095ea7b3146101a4575b600080fd5b610140600480360381019061013b91906119b2565b610396565b60405161014d91906119fa565b60405180910390f35b61015e610478565b60405161016b9190611aa5565b60405180910390f35b61018e60048036038101906101899190611afd565b61050a565b60405161019b9190611b6b565b60405180910390f35b6101be60048036038101906101b99190611bb2565b610526565b005b6101c861053c565b005b6101e460048036038101906101df9190611bf2565b61055e565b005b61020060048036038101906101fb9190611afd565b610660565b005b61021c60048036038101906102179190611bf2565b6106ec565b005b61023860048036038101906102339190611afd565b61070c565b6040516102459190611b6b565b60405180910390f35b61026860048036038101906102639190611c45565b61071e565b6040516102759190611c81565b60405180910390f35b6102866107d8565b005b6102906107ec565b60405161029d9190611b6b565b60405180910390f35b6102ae610816565b6040516102bb9190611aa5565b60405180910390f35b6102de60048036038101906102d99190611cc8565b6108a8565b005b6102e86108be565b6040516102f59190611c81565b60405180910390f35b61031860048036038101906103139190611e3d565b6108d4565b005b610334600480360381019061032f9190611afd565b6108f9565b6040516103419190611aa5565b60405180910390f35b610364600480360381019061035f9190611ec0565b610962565b60405161037191906119fa565b60405180910390f35b610394600480360381019061038f9190611c45565b6109f6565b005b60007f80ac58cd000000000000000000000000000000000000000000000000000000007bffffffffffffffffffffffffffffffffffffffffffffffffffffffff1916827bffffffffffffffffffffffffffffffffffffffffffffffffffffffff1916148061046157507f5b5e139f000000000000000000000000000000000000000000000000000000007bffffffffffffffffffffffffffffffffffffffffffffffffffffffff1916827bffffffffffffffffffffffffffffffffffffffffffffffffffffffff1916145b80610471575061047082610a7c565b5b9050919050565b60606000805461048790611f2f565b80601f01602080910402602001604051908101604052809291908181526020018280546104b390611f2f565b80156105005780601f106104d557610100808354040283529160200191610500565b820191906000526020600020905b8154815290600101906020018083116104e357829003601f168201915b5050505050905090565b600061051582610ae6565b5061051f82610b6e565b9050919050565b6105388282610533610bab565b610bb3565b5050565b61055c336007600081548092919061055390611f8f565b91905055610bc5565b565b600073ffffffffffffffffffffffffffffffffffffffff168273ffffffffffffffffffffffffffffffffffffffff16036105d05760006040517f64a0ae920000000000000000000000000000000000000000000000000000000081526004016105c79190611b6b565b60405180910390fd5b60006105e483836105df610bab565b610be3565b90508373ffffffffffffffffffffffffffffffffffffffff168173ffffffffffffffffffffffffffffffffffffffff161461065a578382826040517f64283d7b00000000000000000000000000000000000000000000000000000000815260040161065193929190611fd7565b60405180910390fd5b50505050565b6000811180156106715750600a8111155b6106b0576040517f08c379a00000000000000000000000000000000000000000000000000000000081526004016106a79061205a565b60405180910390fd5b60005b818110156106e8576106db33600760008154809291906106d290611f8f565b91905055610bc5565b80806001019150506106b3565b5050565b610707838383604051806020016040528060008152506108d4565b505050565b600061071782610ae6565b9050919050565b60008073ffffffffffffffffffffffffffffffffffffffff168273ffffffffffffffffffffffffffffffffffffffff16036107915760006040517f89c62b640000000000000000000000000000000000000000000000000000000081526004016107889190611b6b565b60405180910390fd5b600360008373ffffffffffffffffffffffffffffffffffffffff1673ffffffffffffffffffffffffffffffffffffffff168152602001908152602001600020549050919050565b6107e0610dfd565b6107ea6000610e84565b565b6000600660009054906101000a900473ffffffffffffffffffffffffffffffffffffffff16905090565b60606001805461082590611f2f565b80601f016020809104026020016040519081016040528092919081815260200182805461085190611f2f565b801561089e5780601f106108735761010080835404028352916020019161089e565b820191906000526020600020905b81548152906001019060200180831161088157829003601f168201915b5050505050905090565b6108ba6108b3610bab565b8383610f4a565b5050565b600060016007546108cf919061207a565b905090565b6108df84848461055e565b6108f36108ea610bab565b858585856110b9565b50505050565b606061090482610ae6565b50600061090f61126a565b9050600081511161092f576040518060200160405280600081525061095a565b8061093984611281565b60405160200161094a9291906120ea565b6040516020818303038152906040525b915050919050565b6000600560008473ffffffffffffffffffffffffffffffffffffffff1673ffffffffffffffffffffffffffffffffffffffff16815260200190815260200160002060008373ffffffffffffffffffffffffffffffffffffffff1673ffffffffffffffffffffffffffffffffffffffff16815260200190815260200160002060009054906101000a900460ff16905092915050565b6109fe610dfd565b600073ffffffffffffffffffffffffffffffffffffffff168173ffffffffffffffffffffffffffffffffffffffff1603610a705760006040517f1e4fbdf7000000000000000000000000000000000000000000000000000000008152600401610a679190611b6b565b60405180910390fd5b610a7981610e84565b50565b60007f01ffc9a7000000000000000000000000000000000000000000000000000000007bffffffffffffffffffffffffffffffffffffffffffffffffffffffff1916827bffffffffffffffffffffffffffffffffffffffffffffffffffffffff1916149050919050565b600080610af28361134f565b9050600073ffffffffffffffffffffffffffffffffffffffff168173ffffffffffffffffffffffffffffffffffffffff1603610b6557826040517f7e273289000000000000000000000000000000000000000000000000000000008152600401610b5c9190611c81565b60405180910390fd5b80915050919050565b60006004600083815260200190815260200160002060009054906101000a900473ffffffffffffffffffffffffffffffffffffffff169050919050565b600033905090565b610bc0838383600161138c565b505050565b610bdf828260405180602001604052806000815250611551565b5050565b600080610bef8461134f565b9050600073ffffffffffffffffffffffffffffffffffffffff168373ffffffffffffffffffffffffffffffffffffffff1614610c3157610c30818486611575565b5b600073ffffffffffffffffffffffffffffffffffffffff168173ffffffffffffffffffffffffffffffffffffffff1614610cc257610c7360008560008061138c565b6001600360008373ffffffffffffffffffffffffffffffffffffffff1673ffffffffffffffffffffffffffffffffffffffff168152602001908152602001600020600082825403925050819055505b600073ffffffffffffffffffffffffffffffffffffffff168573ffffffffffffffffffffffffffffffffffffffff1614610d45576001600360008773ffffffffffffffffffffffffffffffffffffffff1673ffffffffffffffffffffffffffffffffffffffff168152602001908152602001600020600082825401925050819055505b846002600086815260200190815260200160002060006101000a81548173ffffffffffffffffffffffffffffffffffffffff021916908373ffffffffffffffffffffffffffffffffffffffff160217905550838573ffffffffffffffffffffffffffffffffffffffff168273ffffffffffffffffffffffffffffffffffffffff167fddf252ad1be2c89b69c2b068fc378daa952ba7f163c4a11628f55a4df523b3ef60405160405180910390a4809150509392505050565b610e05610bab565b73ffffffffffffffffffffffffffffffffffffffff16610e236107ec565b73ffffffffffffffffffffffffffffffffffffffff1614610e8257610e46610bab565b6040517f118cdaa7000000000000000000000000000000000000000000000000000000008152600401610e799190611b6b565b60405180910390fd5b565b6000600660009054906101000a900473ffffffffffffffffffffffffffffffffffffffff16905081600660006101000a81548173ffffffffffffffffffffffffffffffffffffffff021916908373ffffffffffffffffffffffffffffffffffffffff1602179055508173ffffffffffffffffffffffffffffffffffffffff168173ffffffffffffffffffffffffffffffffffffffff167f8be0079c531659141344cd1fd0a4f28419497f9722a3daafe3b4186f6b6457e060405160405180910390a35050565b600073ffffffffffffffffffffffffffffffffffffffff168273ffffffffffffffffffffffffffffffffffffffff1603610fbb57816040517f5b08ba18000000000000000000000000000000000000000000000000000000008152600401610fb29190611b6b565b60405180910390fd5b80600560008573ffffffffffffffffffffffffffffffffffffffff1673ffffffffffffffffffffffffffffffffffffffff16815260200190815260200160002060008473ffffffffffffffffffffffffffffffffffffffff1673ffffffffffffffffffffffffffffffffffffffff16815260200190815260200160002060006101000a81548160ff0219169083151502179055508173ffffffffffffffffffffffffffffffffffffffff168373ffffffffffffffffffffffffffffffffffffffff167f17307eab39ab6107e8899845ad3d59bd9653f200f220920489ca2b5937696c31836040516110ac91906119fa565b60405180910390a3505050565b60008373ffffffffffffffffffffffffffffffffffffffff163b1115611263578273ffffffffffffffffffffffffffffffffffffffff1663150b7a02868685856040518563ffffffff1660e01b81526004016111189493929190612163565b6020604051808303816000875af192505050801561115457506040513d601f19601f8201168201806040525081019061115191906121c4565b60015b6111d8573d8060008114611184576040519150601f19603f3d011682016040523d82523d6000602084013e611189565b606091505b5060008151036111d057836040517f64a0ae920000000000000000000000000000000000000000000000000000000081526004016111c79190611b6b565b60405180910390fd5b805160208201fd5b63150b7a0260e01b7bffffffffffffffffffffffffffffffffffffffffffffffffffffffff1916817bffffffffffffffffffffffffffffffffffffffffffffffffffffffff19161461126157836040517f64a0ae920000000000000000000000000000000000000000000000000000000081526004016112589190611b6b565b60405180910390fd5b505b5050505050565b606060405180602001604052806000815250905090565b60606000600161129084611639565b01905060008167ffffffffffffffff8111156112af576112ae611d12565b5b6040519080825280601f01601f1916602001820160405280156112e15781602001600182028036833780820191505090505b509050600082602083010190505b600115611344578080600190039150507f3031323334353637383961626364656600000000000000000000000000000000600a86061a8153600a8581611338576113376121f1565b5b049450600085036112ef575b819350505050919050565b60006002600083815260200190815260200160002060009054906101000a900473ffffffffffffffffffffffffffffffffffffffff169050919050565b80806113c55750600073ffffffffffffffffffffffffffffffffffffffff168273ffffffffffffffffffffffffffffffffffffffff1614155b156114f95760006113d584610ae6565b9050600073ffffffffffffffffffffffffffffffffffffffff168373ffffffffffffffffffffffffffffffffffffffff161415801561144057508273ffffffffffffffffffffffffffffffffffffffff168173ffffffffffffffffffffffffffffffffffffffff1614155b801561145357506114518184610962565b155b1561149557826040517fa9fbf51f00000000000000000000000000000000000000000000000000000000815260040161148c9190611b6b565b60405180910390fd5b81156114f757838573ffffffffffffffffffffffffffffffffffffffff168273ffffffffffffffffffffffffffffffffffffffff167f8c5be1e5ebec7d5bd14f71427d1e84f3dd0314c0f7b2291e5b200ac8c7c3b92560405160405180910390a45b505b836004600085815260200190815260200160002060006101000a81548173ffffffffffffffffffffffffffffffffffffffff021916908373ffffffffffffffffffffffffffffffffffffffff16021790555050505050565b61155b838361178c565b611570611566610bab565b60008585856110b9565b505050565b611580838383611885565b61163457600073ffffffffffffffffffffffffffffffffffffffff168373ffffffffffffffffffffffffffffffffffffffff16036115f557806040517f7e2732890000000000000000000000000000000000000000000000000000000081526004016115ec9190611c81565b60405180910390fd5b81816040517f177e802f00000000000000000000000000000000000000000000000000000000815260040161162b929190612220565b60405180910390fd5b505050565b600080600090507a184f03e93ff9f4daa797ed6e38ed64bf6a1f0100000000000000008310611697577a184f03e93ff9f4daa797ed6e38ed64bf6a1f010000000000000000838161168d5761168c6121f1565b5b0492506040810190505b6d04ee2d6d415b85acef810000000083106116d4576d04ee2d6d415b85acef810000000083816116ca576116c96121f1565b5b0492506020810190505b662386f26fc10000831061170357662386f26fc1000083816116f9576116f86121f1565b5b0492506010810190505b6305f5e100831061172c576305f5e1008381611722576117216121f1565b5b0492506008810190505b6127108310611751576127108381611747576117466121f1565b5b0492506004810190505b60648310611774576064838161176a576117696121f1565b5b0492506002810190505b600a8310611783576001810190505b80915050919050565b600073ffffffffffffffffffffffffffffffffffffffff168273ffffffffffffffffffffffffffffffffffffffff16036117fe5760006040517f64a0ae920000000000000000000000000000000000000000000000000000000081526004016117f59190611b6b565b60405180910390fd5b600061180c83836000610be3565b9050600073ffffffffffffffffffffffffffffffffffffffff168173ffffffffffffffffffffffffffffffffffffffff16146118805760006040517f73c6ac6e0000000000000000000000000000000000000000000000000000000081526004016118779190611b6b565b60405180910390fd5b505050565b60008073ffffffffffffffffffffffffffffffffffffffff168373ffffffffffffffffffffffffffffffffffffffff161415801561193d57508273ffffffffffffffffffffffffffffffffffffffff168473ffffffffffffffffffffffffffffffffffffffff1614806118fe57506118fd8484610962565b5b8061193c57508273ffffffffffffffffffffffffffffffffffffffff1661192483610b6e565b73ffffffffffffffffffffffffffffffffffffffff16145b5b90509392505050565b6000604051905090565b600080fd5b600080fd5b60007fffffffff0000000000000000000000000000000000000000000000000000000082169050919050565b61198f8161195a565b811461199a57600080fd5b50565b6000813590506119ac81611986565b92915050565b6000602082840312156119c8576119c7611950565b5b60006119d68482850161199d565b91505092915050565b60008115159050919050565b6119f4816119df565b82525050565b6000602082019050611a0f60008301846119eb565b92915050565b600081519050919050565b600082825260208201905092915050565b60005b83811015611a4f578082015181840152602081019050611a34565b60008484015250505050565b6000601f19601f8301169050919050565b6000611a7782611a15565b611a818185611a20565b9350611a91818560208601611a31565b611a9a81611a5b565b840191505092915050565b60006020820190508181036000830152611abf8184611a6c565b905092915050565b6000819050919050565b611ada81611ac7565b8114611ae557600080fd5b50565b600081359050611af781611ad1565b92915050565b600060208284031215611b1357611b12611950565b5b6000611b2184828501611ae8565b91505092915050565b600073ffffffffffffffffffffffffffffffffffffffff82169050919050565b6000611b5582611b2a565b9050919050565b611b6581611b4a565b82525050565b6000602082019050611b806000830184611b5c565b92915050565b611b8f81611b4a565b8114611b9a57600080fd5b50565b600081359050611bac81611b86565b92915050565b60008060408385031215611bc957611bc8611950565b5b6000611bd785828601611b9d565b9250506020611be885828601611ae8565b9150509250929050565b600080600060608486031215611c0b57611c0a611950565b5b6000611c1986828701611b9d565b9350506020611c2a86828701611b9d565b9250506040611c3b86828701611ae8565b9150509250925092565b600060208284031215611c5b57611c5a611950565b5b6000611c6984828501611b9d565b91505092915050565b611c7b81611ac7565b82525050565b6000602082019050611c966000830184611c72565b92915050565b611ca5816119df565b8114611cb057600080fd5b50565b600081359050611cc281611c9c565b92915050565b60008060408385031215611cdf57611cde611950565b5b6000611ced85828601611b9d565b9250506020611cfe85828601611cb3565b9150509250929050565b600080fd5b600080fd5b7f4e487b7100000000000000000000000000000000000000000000000000000000600052604160045260246000fd5b611d4a82611a5b565b810181811067ffffffffffffffff82111715611d6957611d68611d12565b5b80604052505050565b6000611d7c611946565b9050611d888282611d41565b919050565b600067ffffffffffffffff821115611da857611da7611d12565b5b611db182611a5b565b9050602081019050919050565b82818337600083830152505050565b6000611de0611ddb84611d8d565b611d72565b905082815260208101848484011115611dfc57611dfb611d0d565b5b611e07848285611dbe565b509392505050565b600082601f830112611e2457611e23611d08565b5b8135611e34848260208601611dcd565b91505092915050565b60008060008060808587031215611e5757611e56611950565b5b6000611e6587828801611b9d565b9450506020611e7687828801611b9d565b9350506040611e8787828801611ae8565b925050606085013567ffffffffffffffff811115611ea857611ea7611955565b5b611eb487828801611e0f565b91505092959194509250565b60008060408385031215611ed757611ed6611950565b5b6000611ee585828601611b9d565b9250506020611ef685828601611b9d565b9150509250929050565b7f4e487b7100000000000000000000000000000000000000000000000000000000600052602260045260246000fd5b60006002820490506001821680611f4757607f821691505b602082108103611f5a57611f59611f00565b5b50919050565b7f4e487b7100000000000000000000000000000000000000000000000000000000600052601160045260246000fd5b6000611f9a82611ac7565b91507fffffffffffffffffffffffffffffffffffffffffffffffffffffffffffffffff8203611fcc57611fcb611f60565b5b600182019050919050565b6000606082019050611fec6000830186611b5c565b611ff96020830185611c72565b6120066040830184611b5c565b949350505050565b7f71747920312e2e31300000000000000000000000000000000000000000000000600082015250565b6000612044600983611a20565b915061204f8261200e565b602082019050919050565b6000602082019050818103600083015261207381612037565b9050919050565b600061208582611ac7565b915061209083611ac7565b92508282039050818111156120a8576120a7611f60565b5b92915050565b600081905092915050565b60006120c482611a15565b6120ce81856120ae565b93506120de818560208601611a31565b80840191505092915050565b60006120f682856120b9565b915061210282846120b9565b91508190509392505050565b600081519050919050565b600082825260208201905092915050565b60006121358261210e565b61213f8185612119565b935061214f818560208601611a31565b61215881611a5b565b840191505092915050565b60006080820190506121786000830187611b5c565b6121856020830186611b5c565b6121926040830185611c72565b81810360608301526121a4818461212a565b905095945050505050565b6000815190506121be81611986565b92915050565b6000602082840312156121da576121d9611950565b5b60006121e8848285016121af565b91505092915050565b7f4e487b7100000000000000000000000000000000000000000000000000000000600052601260045260246000fd5b60006040820190506122356000830185611b5c565b6122426020830184611c72565b939250505056fea2646970667358221220ddbd136ec6978af450246c6cf80d7085c999cabe43ee86cf163fb2bf15020b4464736f6c63430008180033",
  "linkReferences": {},
  "deployedLinkReferences": {}
}